:020000040800F2
:10000000F0070024410300081944000819420008C1
:100010001144000879060008014A000800000000A9
:100020000000000000000000000000001948000867
:10003000B90C0008000000006144000851480008A5
:100040005B0300085B0300085B0300085B03000818
:100050005B0300085B0300085B0300085B03000808
:100060005B0300085B0300085B03000881060008CF
:100070005B0300085B0300085B0300085B030008E8
:100080005B0300085B0300085B0300085B030008D8
:100090005B0300085B0300085B0300085B030008C8
:1000A0005B0300085B0300085B0300085B030008B8
:1000B0005B0300085B0300085B0300085B030008A8
:1000C0005B0300085B0300085B0300085B03000898
:1000D000A94600085B0300085B0300085B030008F7
:1000E0005B0300085B030008000000005B030008DE
:1000F0005B0300085B0300085B0300085B03000868
:100100005B0300085B0300085B0300085B03000857
:100110005B0300085B0300085B0300085B03000847
:100120005B0300085B0300085B0300085B03000837
:100130005B0300085B0300085B0300085B03000827
:1001400000000000000000000000000000000000AF
:100150005B0300085B0300085B0300085B03000807
:100160005B0300085B0300085B0300085B030008F7
:100170005B0300085B0300085B030008000000004D
:100180005B0300085B0300085B0300085B030008D7
:100190005B0300085B0300085B0300085B030008C7
:1001A0005B0300085B0300085B0300085B030008B7
:1001B0005B0300085B0300085B0300085B030008A7
:1001C0005B0300085B0300085B0300085B03000897
:1001D0005B0300085B0300085B0300085B03000887
:1001E0005B0300085B0300085B0300085B03000877
:1001F0005B0300085B0300085B0300085B03000867
:100200005B0300085B0300085B0300085B03000856
:100210005B0300085B0300085B0300085B03000846
:100220005B0300085B0300085B030008000000009C
:100230005B0300085B030008000000005B0300088C
:100240005B0300085B0300085B0300085B03000816
:100250005B0300085B0300085B0300085B03000806
:100260005B0300085B0300085B0300085B030008F6
:100270005B0300085B0300085B030008000000004C
:100280005B0300085B0300085B030008000000003C
:10029000000000005B03000800F002F800F040F8E6
:1002A0000AA090E8000C82448344AAF10107DA45D1
:1002B00001D100F035F8AFF2090EBAE80F0013F0E3
:1002C000010F18BFFB1A43F0010318473C5300000D
:1002D0005C530000103A24BF78C878C1FAD852079E
:1002E00024BF30C830C144BF04680C6070470000B0
:1002F0000023002400250026103A28BF78C1FBD82F
:10030000520728BF30C148BF0B6070471FB505F0CA
:1003100046F89DE8030000F0D5F81FBD10B510BDEC
:1003200000F00BF91146FFF7F1FF04F0F9FF00F0C0
:1003300043F903B4FFF7F2FF03BC00F0A1F800009B
:100340000948804709480047FEE7FEE7FEE7FEE769
:10035000FEE7FEE7FEE7FEE7FEE7FEE704480549A5
:10036000054A064B70470000214900089902000821
:10037000F0010024F0070024F0030024F00300241F
:100380004FF0000200B5134694469646203922BF2E
:10039000A0E80C50A0E80C50B1F12001BFF4F7AF79
:1003A000090728BFA0E80C5048BF0CC05DF804EB5B
:1003B000890028BF40F8042B08BF704748BF20F8C9
:1003C000022B11F0804F18BF00F8012B70477047C7
:1003D0007047704770B5064600F058F8056806F19A
:1003E0000B0020F00704B4429CBF002070BD2B46D8
:1003F0006A68BAB11068A04210D304F108018842BB
:100400003CBF5068586007D35168101941601168AB
:10041000091B016058601460101D70BD13465268BE
:10042000002AE7D12146284600F038F80028DED11E
:1004300070BD70B50446051F00F028F80068002C58
:1004400014BF446870BD002C18BFAC423CBF2046AE
:100450006468F8D301680A18AA4218BF456003D13E
:100460002A6805461144016028684119A1421CBF51
:100470006C6070BD6168696021680844286070BD67
:1004800001491820ABBEFEE7260002000048704775
:1004900048000024704770477047704738B50446DD
:1004A0000A4600206946AFF30080002808BF38BD27
:1004B00002460099204600F065F8012038BD012071
:1004C00000F088B8F8B5AFF30080054600200C4670
:1004D000102000BF0646A819A0420DD93246694631
:1004E0000020AFF30080070008BF00F073F8009809
:1004F000A04218BF0546C419FFF7C8FF05600746AC
:10050000F01D20F007004619284600F00AF8B44212
:1005100008BFF8BDA21B31463868BDE8F84000F0BE
:1005200031B800210160C0E9011070471020704708
:10053000004870474000002470477546FFF7F8FFF9
:10054000AE4605006946534620F00700854618B0C0
:1005500020B5FFF703FFBDE820404FF000064FF045
:1005600000074FF000084FF0000BAC46ACE8C009A4
:10057000ACE8C009ACE8C009ACE8C00921F007014B
:100580008D467047034640688C46002818BF884255
:100590003CBF03464068F8D318681844884207D027
:1005A0000CF1030020F00700001D411A521A014609
:1005B000081D0A60FFF73DBF10B50446AFF3008089
:1005C0002046BDE81040FFF7B4BE002801D0FFF779
:1005D00057BF704710B500F01DF8BDE81040FFF799
:1005E000F4BF70B505460C460A2000E06D1C00F013
:1005F00039F835B128780028F8D102E0641C00F001
:1006000031F814B120780028F8D1BDE870400A20F4
:1006100000F028B810B5012805D0002103A0FFF78D
:10062000E0FF012010BD09A1F8E70000534947523F
:10063000544D454D3A204F7574206F6620686561B2
:1006400070206D656D6F7279000000003A2048657A
:100650006170206D656D6F727920636F7272757055
:100660007465640008B569468DF800000320ABBED0
:1006700008BD000000000000FEE7000000000000D0
:1006800080B540F2E800C2F2004000F079FC80BD85
:10069000B7210268C4F202018A424FF0010113DD62
:1006A00040F25743C4F202039A421EDC40F2274351
:1006B000C4F202039A4233DCB823C4F202039A4222
:1006C0004AD040F2104343E05723C4F202039A4257
:1006D0001ADD8723C4F202039A422ADC5823C4F2AB
:1006E00002039A4238D0702332E040F28743C4F2CA
:1006F00002039A4224DC40F25843C4F202039A42B5
:100700002AD040F2704323E01023C4F202039A423D
:1007100022D02823C4F202039A421DD0402317E0BE
:1007200040F22843C4F202039A4215D040F24043FB
:100730000EE08823C4F202039A420DD0A02307E002
:1007400040F28843C4F202039A4205D040F2A0432B
:10075000C4F202039A421FD10029016817D06FF03A
:100760000F024AF6AB2352FA81FCCAF6AA23ACFB6D
:1007700003320EA3BCF15F0FC2F302129A5C40F287
:10078000FF3321EA0301C26588BF043101E021F093
:10079000FF018165084670474FF64831CBF6FD7181
:1007A0001144B1FA81F14909D6E700BF00061016DD
:1007B000000610160000000010B545F24342016823
:1007C000C5F6020291424FF001020EDD45F26B4385
:1007D000C5F60203994217DC45F24443C5F602030D
:1007E000994225D045F2584316E045F20843C5F634
:1007F000020399421CD045F21C43C5F602039942FC
:1008000016D045F2304307E045F26C43C5F60203CB
:1008100099420DD045F28043C5F60203994207D0B4
:1008200045F29442C5F602028A1AB2FA82F25209DD
:1008300003788AB14CF6CD42A3F10801CCF6CC4244
:10084000A1FB021245F29441C5F60201120901F51D
:100850005B7301F57B711FE0A3F110024AF6AB2335
:10086000CAF6AA234FF0080EA2FB032340F20F4260
:10087000C4F202024FEA131C914202F1AA0462463A
:1008800088BF0EEB131240F60003A142C4F202032C
:1008900003F1800128BF624603EB820302F01F02CE
:1008A00003660123416603FA02F1816610BD000070
:1008B00080B50179A1F1010EBEF1070F88BF80BD9F
:1008C00045F243420368C5F602024FF0010C934221
:1008D0000EDD45F26B42C5F60202934217DC45F28B
:1008E0004442C5F60202934226D045F2584216E031
:1008F00045F20842C5F6020293421DD045F21C4261
:10090000C5F60202934217D045F2304207E045F2A5
:100910006C42C5F6020293420ED045F28042C5F603
:100920000202934208D04AF66C32CAF2FD721A44AF
:10093000B2FA82F24FEA521C40F60012BCF1000FEC
:10094000C4F2020245F6001102F14003C5F60201AD
:100950001CBF45F60012C5F6020218BF01F14003A4
:1009600002EB8E01C1660121036701FA0EF14167B6
:1009700080BD000000000000816959B1B1F5005F41
:10098000816A0FD103290BD8DFE801F002110215AB
:1009900001207047816A022909D001290BD031B1A9
:1009A0000020704703293CBF01207047F8D1C06A7E
:1009B000C0F300607047C06AA0F1C070B0FA80F068
:1009C000400970470000000070B540F26F44D0F855
:1009D00000E0C4F20204D0F858C0A64519DC9F25F7
:1009E000C4F20205AE4531DC5725C4F20205AE451E
:1009F00056DC1025C4F20205AE4500F09280282591
:100A0000C4F20205AE4500F08C804025C4F2020518
:100A100084E045F22F45C5F60205AE452BDC40F2D9
:100A2000B745C4F20205AE4548DC40F27045C4F259
:100A30000205AE4575D040F28845C4F20205AE45C8
:100A40006FD040F2A045C4F2020567E040F22745AE
:100A5000C4F20205AE4540DCA025C4F20205AE4555
:100A60005FD0B825C4F20205AE455AD040F2104519
:100A7000C4F2020552E045F26B45C5F60205AE45EB
:100A80003CDC45F23045C5F60205AE4549D045F29D
:100A90004445C5F60205AE4543D045F258453BE016
:100AA0005825C4F20205AE453BD07025C4F20205BC
:100AB000AE4536D08825C4F202052FE040F2B84595
:100AC000C4F20205AE452CD045F20845C5F6020534
:100AD000AE4526D045F21C451EE040F22845C4F242
:100AE0000205AE451DD040F24045C4F20205AE45B8
:100AF00017D040F25845C4F202050FE045F26C45AC
:100B0000C5F60205AE450CD045F29445C5F6020582
:100B1000AE4506D045F28045C5F60205AE4540F02B
:100B2000C980456EC66E002E866E6E601CBFD0E911
:100B30001C566E60A64515DC9F24C4F20204A6452F
:100B40002BDC5724C4F20204A6454EDC1024C4F268
:100B50000204A64576D02824C4F20204A64571D02A
:100B600040246BE045F22F44C5F60204A64527DC7D
:100B700040F2B744C4F20204A64542DC40F270449D
:100B8000C4F20204A6455DD040F28844C4F20204D7
:100B9000A64557D040F2A04450E040F22744C4F2AA
:100BA0000204A6453CDCA024C4F20204A64549D0B8
:100BB000B824C4F20204A64544D040F210443DE0FB
:100BC00045F26B44C5F60204A6454FDC45F23044BD
:100BD000C5F60204A6455BD045F24444C5F60204BE
:100BE000A64555D045F258444EE05824C4F20204BC
:100BF000A64527D07024C4F20204A64522D088243A
:100C00001CE040F2B844C4F20204A6451AD045F2F2
:100C10000844C5F60204A6453AD045F21C4433E028
:100C200040F22844C4F20204A6450BD040F24044EE
:100C3000C4F20204A64505D040F25844C4F20204AE
:100C4000A64537D104683F258668C06D00F01F00B7
:100C5000402E05FA00F0CCF80800206820F480202F
:100C60002060636021D0A160E26070BD45F26C44F9
:100C7000C5F60204A6450BD045F28044C5F6020431
:100C8000A64505D045F29444C5F60204A64511D107
:100C90000468C66D806806F01F060125402805FA25
:100CA00006F6CCF80460636002D1A260E16070BD1A
:100CB000A160E26070BD000070470000000000000D
:100CC000704700000000000080B5D8B190F83510E2
:100CD000022919D140F20F420168C4F20202914286
:100CE00016DC6F23C4F20203994226DC3F23C4F2D0
:100CF000020399423CDC1023C4F2020399425AD009
:100D0000282354E0012080BD80214165012080BD61
:100D100040F26F43C4F2020399421ADC40F23F43AF
:100D2000C4F2020399422ADC40F21043C4F20203E7
:100D3000994240D040F2284339E09F23C4F2020395
:100D4000994225DC7023C4F20203994233D08823F0
:100D50002DE040F29F43C4F2020399421FDC40F2AF
:100D60007043C4F20203994225D040F288431EE04A
:100D70004023C4F2020399421DD0582317E040F2E9
:100D80004043C4F20203994215D040F258430EE0AA
:100D9000A023C4F2020399420DD0B82307E040F229
:100DA000B843C4F20203994205D040F2A043C4F212
:100DB0000203994270D191424FF0040280F835202D
:100DC00010DC6F22C4F20202914220DC3F22C4F206
:100DD0000202914236DC1022C4F20202914254D047
:100DE00028224EE040F26F42C4F2020291421ADC25
:100DF00040F23F42C4F2020291422ADC40F2104229
:100E0000C4F20202914240D040F2284239E09F22CF
:100E1000C4F20202914225DC7022C4F20202914225
:100E200033D088222DE040F29F42C4F20202914268
:100E30001FDC40F27042C4F20202914225D040F21F
:100E400088421EE04022C4F2020291421DD0582284
:100E500017E040F24042C4F20202914215D040F243
:100E600058420EE0A022C4F2020291420DD0B822F4
:100E700007E040F2B842C4F20202914205D040F2CB
:100E8000A042C4F20202914224D10068016821F01C
:100E900001010160002080BD0268136823F00E0389
:100EA000136045F25742C5F6020291420A6822F0E9
:100EB00001020A6014DC45F22F42C5F6020291429B
:100EC0001DDC45F20842C5F6020291422CD045F2E3
:100ED0001C4225E0086820F001000860002080BD69
:100EE00045F27F42C5F60202914211DC45F25842BA
:100EF000C5F60202914217D045F26C4210E045F26D
:100F00003042C5F6020291420ED045F2444207E05B
:100F100045F29442C5F60202914205D045F2804264
:100F2000C5F6020291421AD1D0E9181CD0E916E3A5
:100F30000A6822F480720A6003F01F01012202FA9B
:100F400001F1CEF80410816ECCF80410C16E31B1FD
:100F50000A6822F480720A60D0E91C124A600021FB
:100F600080F83410012280F83520026D0AB19047D4
:100F70000021084680BD0000406D70470000000061
:100F80002DE9F04381B00021009140F22C0104468C
:100F9000C2F2004140F26F49A56DC4F2020908682F
:100FA00048F2B511C1F64E312668A0FB01084E4546
:100FB0002F682A6815DC9F20C4F2020086422BDCD1
:100FC0005720C4F2020086424FDC1020C4F2020017
:100FD000864278D02820C4F20200864273D0402096
:100FE0006CE045F22F40C5F60200864227DC40F255
:100FF000B740C4F20200864243DC40F27040C4F2C3
:10100000020086425FD040F28840C4F2020086426D
:1010100059D040F2A04051E040F22740C4F2020013
:1010200086423DDCA020C4F2020086424BD0B820AC
:10103000C4F20200864246D040F210403EE045F243
:101040006B40C5F60200864274DC45F23040C5F6BE
:101050000200864200F0818045F24440C5F602005D
:1010600086427AD045F2584072E05820C4F202001D
:10107000864228D07020C4F20200864223D0882005
:101080001CE040F2B840C4F2020086421BD045F298
:101090000840C5F6020086425FD045F21C4057E08A
:1010A00040F22840C4F2020086420CD040F2404098
:1010B000C4F20200864206D040F25840C4F2020058
:1010C000864240F0ED84E06D00F01F01082000FA38
:1010D00001F23A4200F0148140F20F40C4F20200E3
:1010E000864213DC6F20C4F20200864200F38E8039
:1010F0003F20C4F20200864200F3CF801020C4F2E9
:101100000200864200F0ED802820E5E04E4500F325
:10111000898040F23F40C4F20200864200F3C4805E
:1011200040F21040C4F20200864200F0DA8040F241
:101130002840D1E045F26C40C5F6020086420CD052
:1011400045F28040C5F60200864206D045F2944042
:10115000C5F60200864240F0A3842068E16D01F0EC
:101160001F010368580727D50420884010EA0207AA
:1011700022D01904686000F18780980600F18C8401
:1011800040F20F40C4F20200864200F3AB836F20AE
:10119000C4F20200864200F3E6833F20C4F202005C
:1011A000864200F350841020C4F20200864200F010
:1011B0006D84282000F066BC980742D50220884044
:1011C00010EA02073DD01904686000F10E8398060A
:1011D00000F1988440F20F40C4F20200864200F30E
:1011E000AF836F20C4F20200864200F311843F20D7
:1011F000C4F20200864200F356841020C4F20200BA
:10120000864200F07384282000F06CBC9F20C4F25A
:101210000200864251DC7020C4F20200864260D097
:10122000882059E040F29F40C4F2020086424BDC25
:1012300040F27040C4F20200864252D040F2884030
:101240004AE0180740F12C8408208840104000F044
:10125000278440F20F40C4F20200864200F32C8340
:101260006F20C4F20200864200F34F833F20C4F295
:101270000200864200F393831020C4F202008642EB
:1012800000F0B1832820A9E3D80300F1B482A16C57
:10129000002940F00C8300F003BC4020C4F202009F
:1012A00086421ED0582017E040F24040C4F20200AF
:1012B000864216D040F258400EE0A020C4F2020050
:1012C00086420ED0B82007E040F2B840C4F20200D7
:1012D000864206D040F2A040C4F20200864240F0AE
:1012E0008E82206804230068184209D020680368B1
:1012F00023F004030360AA60606D40F001006065A4
:10130000012000FA01F23A4270D040F20F40C4F2DC
:101310000200864210DC6F20C4F2020086421CDC10
:101320003F20C4F20200864232DC1020C4F20200E8
:10133000864251D028204AE04E451ADC40F23F4018
:10134000C4F2020086422ADC40F21040C4F20200DD
:10135000864241D040F2284039E09F20C4F202008A
:10136000864225DC7020C4F20200864234D08820F8
:101370002DE040F29F40C4F2020086421FDC40F2A2
:101380007040C4F20200864226D040F288401EE03F
:101390004020C4F2020086421ED0582017E040F2DE
:1013A0004040C4F20200864216D040F258400EE09F
:1013B000A020C4F2020086420ED0B82007E040F21E
:1013C000B840C4F20200864206D040F2A040C4F207
:1013D0000200864240F016822068406900F08000DA
:1013E00020B1AA60606D40F002006065042000FA40
:1013F00001F23A4270D040F20F40C4F2020086423D
:1014000010DC6F20C4F2020086421CDC3F20C4F2D4
:101410000200864232DC1020C4F20200864251D023
:1014200028204AE04E451ADC40F23F40C4F2020058
:1014300086422ADC40F21040C4F20200864241D0CB
:1014400040F2284039E09F20C4F20200864225DCA9
:101450007020C4F20200864234D088202DE040F291
:101460009F40C4F2020086421FDC40F27040C4F28A
:101470000200864226D040F288401EE04020C4F29E
:10148000020086421ED0582017E040F24040C4F2CD
:101490000200864216D040F258400EE0A020C4F26E
:1014A000020086420ED0B82007E040F2B840C4F2F5
:1014B0000200864206D040F2A040C4F202008642FA
:1014C00040F0A6812068006800F0020020B1AA6008
:1014D000606D40F004006065102000FA01F13942AF
:1014E0007ED040F20F40C4F20200864210DC6F2032
:1014F000C4F2020086421CDC3F20C4F20200864295
:1015000032DC1020C4F20200864251D028204AE08A
:101510004E451ADC40F23F40C4F2020086422ADC0B
:1015200040F21040C4F20200864241D040F228400E
:1015300039E09F20C4F20200864225DC7020C4F20C
:101540000200864234D088202DE040F29F40C4F251
:10155000020086421FDC40F27040C4F20200864264
:1015600026D040F288401EE04020C4F202008642AD
:101570001ED0582017E040F24040C4F202008642DC
:1015800016D040F258400EE0A020C4F2020086427D
:101590000ED0B82007E040F2B840C4F20200864204
:1015A00006D040F2A040C4F20200864240F03681EC
:1015B000266808223068104212D0A96020680168AD
:1015C0004903016806D4C90506D4016821F0080161
:1015D000016001E008034FD4216C09B1204688471F
:1015E000E06D202100F01F008140394200F0AE8004
:1015F00040F20F432268C4F202039A4210DC6F23C8
:10160000C4F202039A421CDC3F23C4F202039A4252
:1016100036DC1023C4F202039A4255D028234EE050
:101620004A451ADC40F23F43C4F202039A422EDCE0
:1016300040F21043C4F202039A4245D040F22843DC
:101640003DE09F23C4F202039A4229DC7023C4F2D6
:1016500002039A4238D0882331E040F29F43C4F21B
:1016600002039A4223DC40F27043C4F202039A421E
:101670002AD040F2884322E0A16C0029AED1AFE726
:101680004023C4F202039A421ED0582317E040F2CE
:101690004043C4F202039A4216D040F258430EE08F
:1016A000A023C4F202039A420ED0B82307E040F20E
:1016B000B843C4F202039A4206D040F2A043C4F2F7
:1016C00002039A4240F0AC802268102312681A424A
:1016D0003CD0A96094F835202168042A0A681DD1FD
:1016E00022F016020A604A6922F080024A61226CE6
:1016F0000AB9A26C1AB10A6822F008020A603F21F6
:1017000001FA00F0A860002084F83400012084F879
:101710003500216D002940F0CA80C1E150030868FE
:101720000CD4C0050ED4086820F01000086000201A
:1017300084F83400012084F8350003E0000301D46C
:10174000616C00E0E16B09B120468847606D0028BC
:1017500000F0A681606DC00700F0A580042084F829
:10176000350040F20F412068C4F20201884210DCCB
:101770006F21C4F2020188421CDC3F21C4F2020145
:1017800088424FDC1021C4F2020188426FD0282128
:1017900067E048451ADC40F23F41C4F2020188424A
:1017A00047DC40F21041C4F2020188425FD040F2AF
:1017B000284156E09F21C4F20201884242DC702198
:1017C000C4F20201884252D088214AE040F29F418F
:1017D000C4F2020188423CDC40F27041C4F20201D2
:1017E000884244D040F288413BE0D80376D4616C13
:1017F00000295CD154E1216C002958D150E1082323
:10180000304670E53068002000287FF4EAADEDE551
:101810003068002000287FF45AAE5DE60422C9E655
:10182000022353E74021C4F2020188421FD058210D
:1018300017E040F24041C4F20201884217D040F262
:1018400058410EE0A021C4F2020188420FD0B82115
:1018500007E040F2B841C4F20201884207D040F2EA
:10186000A041C4F20201884208BF206800E020685D
:101870004FEA9821026822F00102026000980130CC
:101880000090884203D820680068C007F6D120681D
:10189000002184F834100068C0074FF0030008BF2F
:1018A000012084F83500E16C002900F0F980204621
:1018B000884701B0BDE8F0834E4532DC40F23F403E
:1018C000C4F20200864271DC40F21040C4F2020011
:1018D000864200F0888040F228407FE0E16B0029DA
:1018E000E5D1DDE04E454BDC40F23F40C4F2020062
:1018F000864200F3AF8040F21040C4F202008642FC
:1019000000F0C48040F22840BCE09F20C4F20200F6
:10191000864254DC7020C4F20200864263D08820E4
:101920005CE040F29F40C4F2020086424EDC40F28E
:101930007040C4F20200864255D040F288404DE02B
:101940004E4571DC40F23F40C4F20200864200F393
:10195000B18040F21040C4F20200864200F0C6801E
:1019600040F22840BEE09F20C4F2020086427ADCAA
:101970007020C4F20200864200F08880882081E056
:1019800040F29F40C4F20200864273DC40F2704095
:10199000C4F20200864279D040F2884072E04020D2
:1019A000C4F2020086421ED0582017E040F24040A8
:1019B000C4F20200864216D040F258400EE0A02049
:1019C000C4F2020086420ED0B82007E040F2B840D0
:1019D000C4F20200864206D040F2A040C4F20200E7
:1019E000864240F0948026686FF01C0230681040F8
:1019F0003060012000FA01F169606065002184F81F
:101A0000341084F83500E16C00297FF450AF47E0D2
:101A10009F20C4F20200864255DC7020C4F202000E
:101A2000864263D088205DE040F29F40C4F202000D
:101A300086424FDC40F27040C4F20200864255D02C
:101A400040F288404EE04020C4F2020086421DD0A1
:101A5000582017E040F24040C4F20200864215D000
:101A600040F258400EE0A020C4F2020086420DD0A1
:101A7000B82007E040F2B840C4F20200864205D028
:101A800040F2A040C4F20200864243D126686FF0C3
:101A90000801306808403060216C00297FF407AFEE
:101AA00001B0BDE8F0834020C4F2020086421DD0A0
:101AB000582017E040F24040C4F20200864215D0A0
:101AC00040F258400EE0A020C4F2020086420DD041
:101AD000B82007E040F2B840C4F20200864205D0C8
:101AE00040F2A040C4F20200864216D126686FF090
:101AF0001401306808403060002084F83400012070
:101B000084F83500E16B00297FF4D1AEC8E76FF0AF
:101B10000E026BE76FF00401BBE76FF00A01E8E724
:101B20002DE9F04381B0044600F022FE002C00F0C5
:101B3000758140F26F4805462068C4F202084045AE
:101B400015DC9F21C4F2020188422BDC5721C4F22C
:101B50000201884251DC1021C4F2020188427AD08D
:101B60002821C4F20201884275D040216EE045F27E
:101B70002F41C5F60201884227DC40F2B741C4F28A
:101B80000201884245DC40F27041C4F20201884201
:101B900061D040F28841C4F2020188425BD040F239
:101BA000A04153E040F22741C4F2020188423FDCE9
:101BB000A021C4F2020188424DD0B821C4F2020132
:101BC000884248D040F2104140E045F26B41C5F6F2
:101BD0000201884200F3908045F23041C5F60201CF
:101BE000884200F09C8045F24441C5F602018842DB
:101BF00000F0958045F258418CE05821C4F2020172
:101C0000884228D07021C4F20201884223D0882162
:101C10001CE040F2B841C4F2020188421BD045F2F8
:101C20000841C5F60201884279D045F21C4171E0B5
:101C300040F22841C4F2020188420CD040F24041F7
:101C4000C4F20201884206D040F25841C4F20201B7
:101C5000884240F0138240F20F420021C4F2020297
:101C600084F8341090424FF0020184F8351012DCF1
:101C70006F21C4F20201884220DC3F21C4F202013C
:101C8000884200F392801021C4F20201884200F0E1
:101C9000B1802821A8E040451EDC40F23F41C4F25B
:101CA0000201884200F3888040F21041C4F2020130
:101CB000884200F09F8040F2284195E09F21C4F2C5
:101CC0000201884200F381807021C4F2020188423F
:101CD00000F09080882187E040F29F41C4F2020129
:101CE000884279DC40F27041C4F20201884200F07F
:101CF000818040F2884177E045F26C41C5F60201EF
:101D000088420CD045F28041C5F60201884206D0D7
:101D100045F29441C5F60201884240F0AF8104F1DA
:101D2000080E002084F83400022084F835009EE874
:101D30000640A1F180032068B3FA83F340294FEAFB
:101D40005313D4E90579D4E9076C05684FEA833366
:101D50006FF3101508BF102345EAD2014AF6F83296
:101D60001943CAF2FD7241EADE014CF6CD4341EA65
:101D7000D701024441EAD901CCF6CC4341EAD6016D
:101D8000A2FB032341EA1C1101606FF0030000EA8B
:101D90009300E0652046FEF77BFCE16D012201F037
:101DA0001F0102FA01F141609CE04021C4F20201EE
:101DB00088421FD0582117E040F24041C4F202018E
:101DC000884217D040F258410EE0A021C4F202012F
:101DD00088420FD0B82107E040F2B841C4F20201B6
:101DE000884207D040F2A041C4F20201884208BFF5
:101DF000206800E02068016821F00101016000BF57
:101E000027683868C0070DD000F0B2FC401B0628D8
:101E1000F6D320206065032084F83500012001B04E
:101E2000BDE8F08348F23F0104F108053868CFF6B9
:101E3000106108402ECD0843A1691043E2691843A0
:101E4000236A0543606A2943042841EA020141EA02
:101E5000030103D1D4E90B231143194341F20002DA
:101E6000C5F600421268B2F1005F17D36268A2F1B2
:101E70002903202B06D23F25CCF2C03525FA03F3E7
:101E8000DB0706D1A2F14F030022042B38BF012249
:101E900000E00122002A18BF41F4801139600428B3
:101EA000796921F0070141EA000510D1D4E90A104F
:101EB00045EA010558B12046FEF75EFD38B14020E5
:101EC0006065012084F8350001B0BDE8F08320464C
:101ED0007D61FEF7DDFBE16D3F2201F01F0102FA9B
:101EE00001F181602068404519DC9F21C4F20201A4
:101EF000884231DC5721C4F20201884256DC1021AD
:101F0000C4F20201884200F091802821C4F202014B
:101F1000884200F08B804021C4F2020184E045F247
:101F20002F41C5F6020188422BDC40F2B741C4F2D2
:101F30000201884248DC40F27041C4F2020188424A
:101F400074D040F28841C4F2020188426ED040F25F
:101F5000A041C4F2020167E040F22741C4F202014D
:101F6000884240DCA021C4F2020188425ED0B82140
:101F7000C4F20201884259D040F21041C4F2020179
:101F800052E045F26B41C5F6020188423CDC45F265
:101F90003041C5F60201884248D045F24441C5F6B9
:101FA0000201884242D045F258413BE05821C4F238
:101FB000020188423AD07021C4F20201884235D031
:101FC0008821C4F202012FE040F2B841C4F20201BC
:101FD00088422BD045F20841C5F60201884225D03F
:101FE00045F21C411EE040F22841C4F20201884241
:101FF0001CD040F24041C4F20201884216D040F2A7
:102000005841C4F202010FE045F26C41C5F60201ED
:1020100088420BD045F29441C5F60201884205D0B2
:1020200045F28041C5F6020188421FD12046FEF7E5
:10203000C3FBA068802801D10020606004F1600328
:102040006068C7B201380ECB07280F60536009D80B
:102050002046FEF72DFC04F16C02002307CA036042
:102060004A6003E00020C4E91B006067002060654F
:10207000012184F8351001B0BDE8F0834020C9E6A5
:10208000F0B581B0A8B3044690F83400012802D11D
:10209000022001B0F0BD012084F8340094F835002E
:1020A000012820D1022084F835000020606540F22C
:1020B0000F472068C4F2020740F26F45B842C4F2ED
:1020C000020519DC6F26C4F20206B04225DC3F2669
:1020D000C4F20206B0423BDC1026C4F20206B04253
:1020E0005BD0282653E0002084F834004FF40060D1
:1020F0006065012001B0F0BDA8421ADC40F23F4605
:10210000C4F20206B0422ADC40F21046C4F20206D3
:10211000B04242D040F2284639E09F26C4F202067F
:10212000B04225DC7026C4F20206B04235D08826C3
:102130002DE040F29F46C4F20206B0421FDC40F29E
:102140007046C4F20206B04227D040F288461EE034
:102150004026C4F20206B0421FD0582617E040F2D3
:102160004046C4F20206B04217D040F258460EE094
:10217000A026C4F20206B0420FD0B82607E040F213
:10218000B846C4F20206B04207D040F2A046C4F2FC
:102190000206B04208BF206800E02068066826F00A
:1021A000010606602046FEF70FFCB7212068C4F246
:1021B000020188424FF0010113DD40F25742C4F2A0
:1021C000020290421EDC40F22742C4F20202904218
:1021D00033DCB822C4F2020290424BD040F21042EB
:1021E00043E05722C4F2020290421ADD8722C4F271
:1021F000020290422ADC5822C4F20202904239D0F4
:10220000702232E040F28742C4F20202904224DCA3
:1022100040F25842C4F2020290422BD040F2704287
:1022200023E01022C4F20202904223D02822C4F2FA
:10223000020290421ED0402217E040F22842C4F22F
:102240000202904216D040F240420EE08822C4F2D0
:10225000020290420ED0A02207E040F28842C4F26F
:102260000202904206D040F2A042C4F20202904222
:1022700040F03681002901680AD022680B26236CC1
:1022800066F34401116073B1116841F0080109E07F
:1022900022680526236C66F3430111601BB11168A7
:1022A00041F004011160A84219DC9F21C4F202012F
:1022B000884231DC5721C4F20201884256DC1021E9
:1022C000C4F20201884200F091802821C4F2020188
:1022D000884200F08B804021C4F2020184E045F284
:1022E0002F41C5F6020188422BDC40F2B741C4F20F
:1022F0000201884248DC40F27041C4F20201884287
:1023000074D040F28841C4F2020188426ED040F29B
:10231000A041C4F2020167E040F22741C4F2020189
:10232000884240DCA021C4F2020188425ED0B8217C
:10233000C4F20201884259D040F21041C4F20201B5
:1023400052E045F26B41C5F6020188423CDC45F2A1
:102350003041C5F60201884248D045F24441C5F6F5
:102360000201884242D045F258413BE05821C4F274
:10237000020188423AD07021C4F20201884235D06D
:102380008821C4F202012FE040F2B841C4F20201F8
:1023900088422BD045F20841C5F60201884225D07B
:1023A00045F21C411EE040F22841C4F2020188427D
:1023B0001CD040F24041C4F20201884216D040F2E3
:1023C0005841C4F202010FE045F26C41C5F602012A
:1023D00088420BD045F29441C5F60201884205D0EF
:1023E00045F28041C5F60201884272D1216E0A6829
:1023F000D20303D50A6842F480720A60E16E19B113
:102400000A6842F480720A60B84210DC6F21C4F29C
:10241000020188421CDC3F21C4F20201884232DC06
:102420001021C4F20201884252D028214AE0A84279
:102430001ADC40F23F41C4F2020188422ADC40F239
:102440001041C4F20201884242D040F2284139E0F2
:102450009F21C4F20201884225DC7021C4F20201EE
:10246000884235D088212DE040F29F41C4F202011C
:1024700088421FDC40F27041C4F20201884227D03A
:1024800040F288411EE04021C4F2020188421FD080
:10249000582117E040F24041C4F20201884217D0AF
:1024A00040F258410EE0A021C4F2020188420FD050
:1024B000B82107E040F2B841C4F20201884207D0D7
:1024C00040F2A041C4F20201884208BF206800E047
:1024D0002068016841F001010160002001B0F0BDF9
:1024E0004FF64831CBF6FD710144B1FA81F149094B
:1024F000C0E600000000000080B544F27C4045F2D8
:102500003101C5F602004CF22302C0F20101C0F60F
:102510000022016000210160426040F271224160AE
:10252000826040F2FF728160C0F22832C2601822DD
:10253000C16002614CF2FF320161CEF6FF024261DE
:102540004FF49B724161826143F233028161C3F2B5
:10255000D712C2614DF6AA62C161C0F220020262C6
:10256000016200F07DF9002080BD00000000000045
:10257000B0B5044600F0FCF840F234010546C2F262
:102580000041621C097818BF0C4400BF00F0F0F84D
:10259000401BA042FAD3B0BD2DE9F04F83B00E68C6
:1025A000002E00F0C98000F126420A2302F1FF72DA
:1025B00040F2040C4FEAB222019242F20042C5F608
:1025C000000CC5F602024FF0010B90424FF00005DF
:1025D00008BF092300274FF0010800930AE000BF5D
:1025E0000E68043736FA08F208F1010805F1020511
:1025F00000F0A280A8F1010A0BFA0AF216EA020919
:10260000EED04E68122E17D80BFA06F414F0061FFF
:1026100012D00323D0F808E0AB40CC682EEA0303C5
:10262000AC40234383604368C6F3001423EA0202EC
:1026300004FA0AF31A4342600323C268AB4046F02F
:1026400010046FEA030E9A438B68122C03FA05F309
:1026500042EA0302C26012D16FF0030207F01C04C9
:1026600002EA5A020F260244A640136AD1F810B0BB
:10267000B3430BFA04F44FF0010B234313620268D7
:102680004B6803F0030402EA0E02AC40DB0042EAAE
:1026900004020260A4D544F2F443C5F602031A68AA
:1026A00042F002021A601A6807F00C0302F00202FC
:1026B0000292029A2AF0030240F2084A019C009E0C
:1026C000C5F6000A092C38BF26460F2452F80AE046
:1026D0009C402EEA040406FA03F3234342F80A302E
:1026E000DCF87C204B6842EA0906DC0358BF22EA8A
:1026F00009069C034FF0B04ECCF87C60DCF88020DB
:1027000042EA090658BF22EA0906DC02CCF88060DA
:10271000DEF8002042EA090658BF22EA09069B02B9
:10272000CEF80060DCF8002042EA090658BF22EA31
:102730000906CCF8006053E703B0BDE8F08F000055
:102740000069084018BF0120704700000000000029
:10275000002A08BF090481617047000000000000E2
:1027600041F20000C5F600400068000C7047000010
:1027700040F2E810C2F2004000687047000000001C
:1027800040F2340040F2E811C2F20040C2F20041CF
:1027900000780A68104408607047000000000000DC
:1027A00080B5032000F084F800F056FF44F2184191
:1027B00045F2B833C5F60201C0F600030A68C2F359
:1027C0000322096801F00F019A5C595C02F01F02B4
:1027D000D04040F23002C2F2004201F01F0120FA64
:1027E00001F1116040F22C01C2F2004108600020AA
:1027F00000F00AF800281CBF012080BD00F034F86A
:10280000002080BD00000000B0B540F23401C2F2EB
:102810000041097801B3044640F22C00C2F20040A6
:102820004FF47A72B2FBF1F10068B0FBF1F001F005
:10283000EFFC0F2C4FF001050CD858B94FF0FF30CA
:1028400000222146002500F023F840F23800C2F2B1
:10285000004004602846B0BD0120B0BD000000006B
:10286000704700000000000081B044F2F440C5F65B
:102870000200016841F002010160006800F00200FE
:102880000090009801B0704780B502F00DFD80BD4A
:1028900070B514460D46064602F016FD294622463E
:1028A00001F0BEFD0146304602F016FD70BD00008D
:1028B00080B502F025FD80BDB0B544F60C05C5F627
:1028C000020529684907296805D401F00701081A9B
:1028D00018BF0120B0BD21F0070108432860FFF7B1
:1028E00047FF044655F8080C800407D4FFF740FF63
:1028F000001BB0F57A7FF5D90120B0BD0020B0BD36
:102900002DE9F04381B00446C07844F22C49000719
:10291000C5F6020901D400262DE0606E4FEA305062
:1029200003280DD80026DFE800F0020E1613D9F8B0
:102930000000002640F40030C9F800004EB912E053
:10294000012636B90FE0201D022101F08DFD06465B
:102950004EB1B04611E004F12400022101F014FE52
:102960000646002EF5D1D9F82400616E20F44010FF
:102970000843C9F824004FF000086078C0072FD042
:10298000606D042807D8DFE800F00A131B0303007A
:10299000F6B1B04624E00126002EFAD118E0D9F8AD
:1029A000000040F40030C9F80000002EF1D10FE023
:1029B000201D002101F058FD0646002EE9D107E058
:1029C00004F12400002101F0DFFD0646002EE0D1D5
:1029D000D9F82400616D20F007000843C9F82400ED
:1029E0006078800731D5A06D4FEAB010042807D871
:1029F000DFE800F00A131B030300F6B1B04624E041
:102A00000126002EFAD118E0D9F8000040F4003079
:102A1000C9F80000002EF1D10FE0201D002101F0C7
:102A200023FD0646002EE9D107E004F12400002131
:102A300001F0AAFD0646002EE0D1D9F82400A16DD0
:102A400020F4E0700843C9F824006078400733D5CB
:102A5000D4F8A4004FEA7050042807D8DFE800F04B
:102A60000A131B030300F6B1B04625E00126002E31
:102A7000FAD118E0D9F8000040F40030C9F800009D
:102A8000002EF1D10FE0201D002101F0EDFC0646E3
:102A9000002EE9D107E004F12400002101F074FDCB
:102AA0000646002EE0D1D9F82C00D4F8A41020F46A
:102AB00060000843C9F82C006078000733D5D4F8CB
:102AC000A8004FEA3060042807D8DFE800F00A13B6
:102AD0001B030300F6B1B04625E00126002EFAD113
:102AE00018E0D9F8000040F40030C9F80000002ECA
:102AF000F1D10FE0201D002101F0B6FC0646002EAA
:102B0000E9D107E004F12400002101F03DFD064673
:102B1000002EE0D1D9F82C00D4F8A81020F0E06005
:102B20000843C9F82C00E078800727D5A06C4FEA4D
:102B30003010032806D8DFE800F002091202AEB117
:102B4000B0461BE00126002EFAD10FE0D9F80000B4
:102B500040F40030C9F80000002EF1D106E0201D3D
:102B6000022101F081FC0646002EE9D1D9F82000AF
:102B7000A16C20F030000843C9F820006078C0063E
:102B800031D5E06D4FEA3030042807D8DFE800F097
:102B90000A131B030300F6B1B04624E00126002E01
:102BA000FAD118E0D9F8000040F40030C9F800006C
:102BB000002EF1D10FE0201D002101F055FC06464A
:102BC000002EE9D107E004F12400002101F0DCFC33
:102BD0000646002EE0D1D9F82400E16D20F4E04053
:102BE0000843C9F824006078800625D5206E4FEA96
:102BF0003040052807D8DFE800F0030A0F0303037D
:102C000096B1B04618E00126002EFAD10CE0201D46
:102C1000012101F029FC04E004F12400012101F06C
:102C2000B3FC0646002EECD1D9F82400216E20F426
:102C3000E0200843C9F824006078400627D5D4F87E
:102C4000AC004FEA3070052807D8DFE800F0030A2F
:102C50000F03030396B1B04619E00126002EFAD106
:102C60000CE0201D012101F0FFFB04E004F1240031
:102C7000012101F089FC0646002EECD1D9F82C0088
:102C8000D4F8AC1020F0E0400843C9F82C0060787C
:102C900000061FD5E06ED0B1B0F1005F12D0B0F1E8
:102CA000805F24D1D9F8000040F40030C9F800005A
:102CB0007EB9D9F82400E16E20F040500843C9F8ED
:102CC000240007E0201D012101F0CEFB0646002E66
:102CD000EFD0B046E078C00729D0606C03280AD84E
:102CE000DFE800F0020D1602CEB1B0461FE001266B
:102CF000002EEED1DDE70126002EF6D10FE0D9F847
:102D0000000040F40030C9F80000002EEDD106E0CC
:102D1000201D022101F0A8FB0646002EE5D1D9F8BE
:102D20002000616C20F003000843C9F82000A0785F
:102D3000400643D5D9F8D40340F48070C9F8D403D1
:102D4000FFF716FD074600BFD9F8D403C00505D428
:102D5000FFF70EFDC01B6528F6D303266EBBD9F81E
:102D60004410D4F8B000414011F4407F11D0D9F89C
:102D70004410D9F8442042F48032C9F84420D9F8EC
:102D8000442021F4407122F48032C9F84420C9F86B
:102D90004410B0F5807F0FD1FFF7EAFC074641F2FF
:102DA000893500BFD9F84400800705D4FFF7E0FC5F
:102DB000C01BA842F6D3032686B1B0462078C007D0
:102DC00041D0A06F4FEAF000052823D8DFE800F0DB
:102DD00003262B03030376B3B04634E04FF6CF73DC
:102DE000D4F8B00059F81C2CC0F2FF0300F4407175
:102DF00022F47C5203EA1013B1F5407F08BF1A4356
:102E00006FF31F3049F81C2CD9F844100843C9F857
:102E10004400D3E70126002EDED10CE0201D012165
:102E200001F022FB04E004F12400012101F0ACFBDD
:102E30000646002ED0D1D9F82800A16F20F0380026
:102E40000843C9F828002078800723D5606F05283B
:102E500007D8DFE800F0030A0F03030396B1B0467A
:102E600018E00126002EFAD10CE0201D012101F00E
:102E7000FBFA04E004F12400012101F085FB064681
:102E8000002EECD1D9F82800616F20F0070008432C
:102E9000C9F828002078400725D5D4F890000528E7
:102EA00007D8DFE800F0030A0F03030396B1B0462A
:102EB00019E00126002EFAD10CE0201D012101F0BD
:102EC000D3FA04E004F12400012101F05DFB064681
:102ED000002EECD1D9F82C00D4F8901020F0070087
:102EE0000843C9F82C002078800627D5D4F88C0038
:102EF0004FEA3070052807D8DFE800F0030A0F0317
:102F0000030396B1B04619E00126002EFAD10CE079
:102F1000201D002101F0A8FA04E004F124000221A0
:102F200001F032FB0646002EECD1D9F82800D4F887
:102F30008C1020F0E0400843C9F8280020784006B3
:102F400027D5D4F898004FEAB020052807D8DFE845
:102F500000F0030A0F03030396B1B04619E00126FF
:102F6000002EFAD10CE0201D002101F07DFA04E0D2
:102F700004F12400022101F007FB0646002EECD1EB
:102F8000D9F82C00D4F8981020F4E0500843C9F880
:102F90002C002078000627D5D4F89C004FEA70302A
:102FA000052807D8DFE800F0030A0F03030396B1F2
:102FB000B04619E00126002EFAD10CE0201D0021B8
:102FC00001F052FA04E004F12400022101F0DCFADD
:102FD0000646002EECD1D9F82C00D4F89C1020F431
:102FE00060400843C9F82C002078000716D5D4F8B3
:102FF0008000B0F5805F08D104F12400022101F0C7
:10300000C3FA002818BF4FF00108D9F82800D4F8F7
:10301000801020F440500843C9F828002078C006EA
:1030200016D5D4F89400B0F5807F08D104F12400BF
:10303000022101F0A9FA002818BF4FF00108D9F8C1
:103040002C00D4F8941020F440700843C9F82C00E8
:10305000A078000721D5D4F8A000B0F5003F19D022
:10306000B0F5803F10D0C0BB201D002101F0FCF95D
:1030700006468EB9D9F82C00D4F8A01020F44030C0
:103080000843C9F82C0008E004F12400022101F0F3
:103090007BFA0646002EEDD0B046A078400729D531
:1030A000D4F88400B0F5401F21D0B0F5001F18D02F
:1030B000B0F5801F40F0B480D9F8000040F4003033
:1030C000C9F80000AEB9D9F82800D4F8841020F46B
:1030D00040100843C9F828000CE00126002EDBD17F
:1030E000C8E704F12400012101F04EFA0646002E43
:1030F000E9D0B046A078C0071FD0E06CB0F5803FA3
:1031000010D0B0B9D9F8000040F40030C9F8000080
:1031100096B9D9F82000E16C20F480300843C9F852
:1031200020000AE0201D022101F09EF906461EB98A
:10313000EFE70126002EECD0B046E078800608D5F7
:1031400004F12400022101F01FFA002818BF4FF0FB
:1031500001082068810313D4C10229D4C10031D4ED
:1031600081023AD4410042D4B0F1FF3F4FDDB8F1C3
:10317000000F18BF4FF00108404601B0BDE8F083D2
:10318000E16F6FF0010202EB3122022A0AD34FEA0B
:1031900031223AB1012A48D1D9F8002042F4003254
:1031A000C9F80020002E43D04FF00108C102D5D548
:1031B000D9F82410226F21F000411143C9F82410DE
:1031C000C100CDD559F81C1CD4F8B42021F480419D
:1031D000114349F81C1C8102C4D5D9F82410A26EF1
:1031E00021F080711143C9F824104100BCD559F871
:1031F0001C1C21F4004149F81C1CD4F8B81059F8E3
:103200001C2C114349F81C1CB0F1FF3FAFDCD9F86E
:103210002000216D20F040500843C9F82000A6E7A7
:103220000126002E7FF465AF4DE70126002EBBD1AD
:10323000D9F8282022F440721143C9F82810C1029D
:103240007FF58CAFB4E700002DE9F04381B0002892
:1032500000F0F28042F200080446C5F200288946D8
:10326000D8F8000000F00F0088420ED2D8F8000015
:1032700020F00F0040EA0900C8F80000D8F800006C
:1032800000F00F00484540F0D780206844F218470E
:103290004107C5F602070AD521693A6802F07002B3
:1032A000914204D93A6822F0700211433960010753
:1032B0000AD561697A6802F07002914204D97A688D
:1032C00022F0700211437960C1060AD5A1697A68BB
:1032D00002F4E062914204D97A6822F4E062114378
:1032E000796081060AD5E169BA6802F070029142FC
:1032F00004D9BA6822F070021143B96081070AD577
:10330000E1683A6802F00F02914204D93A6822F06B
:103310000F0211433960C0077ED1206881070AD5AA
:10332000E1683A6802F00F02914204D23A6822F052
:103330000F0211433960D8F8001001F00F01494520
:103340000DD9D8F8001021F00F0141EA0901C8F8A1
:103350000010D8F8001001F00F0149456CD1410769
:103360000AD521693A6802F07002914204D23A68A3
:1033700022F070021143396001070AD561697A6849
:1033800002F07002914204D27A6822F07002114376
:103390007960C1060AD5A1697A6802F4E0629142B7
:1033A00004D27A6822F4E0621143796080060AD57B
:1033B000E069B96801F07001884204D2B96821F06F
:1033C00070010843B86000F047F9396845F2B83237
:1033D000C0F60002C1F303213B6803F00F03515C08
:1033E000D25C01F01F01C84002F01F0140F2300220
:1033F00020FA01F1C2F20042116040F22C0140F2C9
:103400003802C2F20041C2F2004208601068FFF7C1
:10341000FBF901B0BDE8F083386820F47061D4E9AD
:103420000102032841EA0201396009D0022829D1AA
:1034300057F8181C890307D4012001B0BDE8F083B8
:1034400057F8181C8901F7D557F8081C21F0070117
:10345000084347F8080CFFF78BF9064641F2883518
:1034600057F8080C616800F03800B0EBC10F3FF46A
:1034700054AFFFF77DF9801BA842F1D9032001B0BA
:10348000BDE8F083012857F8181C02D1C905D3D52F
:10349000DAE74907D0D5D7E72DE9F04142F2000835
:1034A000C5F20028D8F8000000F00F0006280CD85C
:1034B000D8F80000072161F30300C8F80000D8F82D
:1034C000000000F00F00072831D144F20047C5F694
:1034D0000207FFF74DF90446386840F001003860F4
:1034E0003868400707D4FFF743F9001B0228F7D9D3
:1034F0000320BDE8F081786849F2000140F0804087
:1035000078600020386140F22C00C0F2D031C2F265
:10351000004040F23802C2F20042016040F2300046
:10352000C2F2004001601068FFF76EF910B101208F
:10353000BDE8F081FFF71CF9044641F2883600BF70
:103540003D69FFF715F915F0380F054605D0281B22
:10355000B042F5D90320BDE8F0814EF645513868F8
:10356000CFF6F671084038603C68FFF701F9A10317
:10357000044605D5601B6428F6D90320BDE8F08118
:10358000386820F0807038603D68FFF7F1F8A901D5
:10359000054605D5281B02284FF00300F4D956E054
:1035A000386820F0806038603C68FFF7E1F821015E
:1035B000044605D5601B02284FF00300F4D946E00D
:1035C000386820F0805038603868800007D5FFF7F1
:1035D000CFF8001B02284FF00300F5D937E040F286
:1035E00000210020B861C0F20221F8613862B9629E
:1035F0000021C0F2FF11F96240F28021C0F20111F6
:1036000039637863B963F86339647864396821F49D
:103610008021396038664FF0FF30B866D7F8D000A7
:1036200040F48030C7F8D000D8F8000000070DD56E
:10363000D8F80000072161F30300C8F80000D8F8AB
:10364000000000F00F0007287FF471AF0020BDE8F4
:10365000F08100000000000044F20041C5F60201C4
:103660000869C0F3C20003280FD002282BD078BB12
:103670000868800649F20000C0F2D03058BF704799
:103680000968C1F3C101C84070478A6A886AC0F3FB
:10369000051CCB6A486B03F00103BCF1000FC0F3BB
:1036A000CC0003FB00F000EE100AB8EE400A14D084
:1036B00002F00302022A12D0A2B90868800614D4CC
:1036C0009FED251A1EE047F64000C0F27D107047BE
:1036D00040F60010C0F23D007047002070479FED9B
:1036E0001D1A0FE09FED1A1A0CE0086849F200025B
:1036F000C0F2D032C0F3C10022FA00F001EE100A8D
:10370000B8EE411A02EE10CA9FED144AB8EE422AF2
:10371000086B6FF35F2003EE100A81EE021AB8EE19
:10372000433A086B00EE043AB7EE000AC0F34620B5
:10373000013033EE000A21EE000A01EE100AB8EE65
:10374000411A80EE010ABCEEC00A10EE100A704762
:103750000024744A20BCBE4B0024744C0000003985
:103760002DE9F041002800F046810446007844F23B
:103770000046C007C5F602064AD0306900F038019D
:10378000B06A102905D018290AD100F003000228D8
:1037900006D13068800337D56068A8BB012726E0D2
:1037A00065686DB1B5F5803F06D0B5F5A02F3068DE
:1037B00007D140F480203060306840F4803006E06B
:1037C000306820F480303060306820F48020306031
:1037D000FEF7CEFF002D054613D000BF30688003F2
:1037E00012D4FEF7C5FF401B6428F7D90327002039
:1037F000002800F016820BE0FEF7BAFF401B642899
:10380000F4D830688003F7D40120002800F0098242
:103810002078800755D5306910F03801B06A18D08B
:10382000182908BF5FEA807013D0E068316858B388
:1038300021F0190108433060FEF79AFF054600BFEA
:10384000306840070AD4FEF793FF401B0228F7D9DF
:1038500028E03068400701D5E06868B3FEF780FFD4
:1038600041F20301884208D820697168402821F498
:103870007C3119D141F4003018E07068216920F0E2
:10388000FE4040EA016011E021F001003060FEF7E7
:103890006FFF05463068400709D5FEF769FF401BFA
:1038A0000328F7D3032708E041EA003070600120C5
:1038B000002800F0B68104E001270020002800F075
:1038C000B0812078C0065AD5306900F03801B06A5E
:1038D000082905D0182918D100F00300012814D1B7
:1038E0003068C00502D5E069802843D1FEF738FF73
:1038F00041F2030188421CD8206A7168202821F017
:10390000F8412FD141F080402EE0E0690028306876
:1039100017D040F080003060FEF72AFF054600BF58
:103920003068C005E2D4FEF723FF401B0228F7D918
:1039300016E0F068216A20F07C5040EA0160F060F7
:1039400013E020F080003060FEF712FF054600BF54
:103950003068C00509D5FEF70BFF401B0328F7D3DD
:10396000032708E041EA806070600120002800F031
:10397000588104E001270020002800F052812078BF
:1039800000073CD4207880064DD4207840075ED4D0
:10399000656A65B3306900F03800182840F09E80F1
:1039A000012DB16A306B26D001F00302A36A9A425E
:1039B00021D1C1F30511E26A91421CD10146226B6B
:1039C0006FF35F21013A914215D1C0F34621626B3A
:1039D000013A91420FD1C0F30641A26B013A9142E4
:1039E00009D1C0F30660E16B0139884203D1002799
:1039F000F8B2BDE8F0810127F8B2BDE8F081606956
:103A00000028706F39D040F001007067FEF7B0FEFB
:103A1000054600BF706F8007B4D4FEF7A9FE401BB7
:103A20000228F7D925E0A0690028306844D040F486
:103A300080503060FEF79CFE054600BF3068800471
:103A4000A3D4FEF795FE401B0228F7D911E0D6F863
:103A5000000440F48070C6F80004FEF789FE0546B5
:103A6000D6F80004C00519D4FEF782FE401B642876
:103A7000F6D90327F8B2BDE8F08120F001007067A5
:103A8000FEF776FE05460327706F80077FF57AAF55
:103A9000FEF76EFE401B0228F6D9C2E0A568EDB322
:103AA000012D05D0052D306F39D140F0040030676D
:103AB000306F40F0010038E020F480503060FEF7B5
:103AC00057FE0546032700BF306880047FF55DAFD1
:103AD000FEF74EFE401B0228F6D9A2E0306820F027
:103AE00080703060FEF744FE022D05464FF003075C
:103AF0000AD100BF3068800135D5FEF739FE401B82
:103B00000228F7D98DE000BF306880017FF56FAFE4
:103B1000FEF72EFE401B0228F6D982E0306F20F01F
:103B200001003067306F20F004003067FEF720FEA0
:103B3000002D054641F288384FF003070FD000BF33
:103B4000306F80073FF524AFFEF712FE401B404563
:103B5000F6D966E0FEF70CFE401B404561D8306F99
:103B60008007F7D414E704F12807B06A40F2F33174
:103B700088438ECF0843591E40EA02104FF47E421C
:103B8000B06202EB47206FF35F214FF4FE0280B278
:103B9000E36B0844A16B02EB01414FF0FE4201F4DC
:103BA000FE0102EB0362084402F0FE410844306368
:103BB000F06A4FF6F87120F00100F062706BA26CB1
:103BC000884340EAC2007063F06A216C20F00C0068
:103BD0000843F062F06A616C20F002000843F06272
:103BE000F06A40F48030F062F06A40F40030F06235
:103BF000F06A40F48020F062F06A40F00100F06268
:103C0000306840F080703060FEF7B2FD0446032754
:103C1000306880013FF5EBAEFEF7AAFD001B0228DD
:103C2000F6D9F8B2BDE8F08170470000000000004E
:103C30002DE9F047066804463769D6F814A00AEA69
:103C40000705D6F8089005F0640094F881800428F0
:103C500007D1616F20468847216F204688470120A1
:103C600000E0002005F04501012903D1216F204625
:103C70008847012005F02601022903D1616F204603
:103C80008847012008B1BDE8F08728070BD4380722
:103C900063D51AF4006060D02068816941F4006146
:103CA0008161BDE8F087206819F4404F816941F0D7
:103CB00008018161816941F010018161816941F4EC
:103CC00000618161016921F0080101610ED0B8F144
:103CD000040F06D0A16FC96941B1B8F1030F00F01C
:103CE000C080E16FC969002940F0AC80806810F4A1
:103CF000404F1CD0204600F0DFFC012084F88100FA
:103D0000D4F88400002800F09D802046FFF78CFF47
:103D1000BDE8F0872068616E006B08600420616E6A
:103D200008446066B4F86A000138A4F86A00B4F880
:103D30006A000028DED0E0681028EBD2082805D3FE
:103D4000308E616E08800220E9E700BF206890F89D
:103D50003000616E08700120E1E715F4587F92D0C1
:103D600015F040000AD02068D4F8841041F0040116
:103D7000C4F88410816941F040018161A8050AD529
:103D80002068D4F8841041F00101C4F884108169DE
:103D900041F400718161E80505F020000AD5216831
:103DA000D4F8842042F00802C4F884208A6942F4DE
:103DB00080728A6150B12068D4F8841041F080018B
:103DC000C4F88410816941F020018161D4F8840035
:103DD00000283FF458AF206809F4404240F26B33AA
:103DE000B2F5404F016821F001010160016921EA4B
:103DF000030101613FD1816844F2717521F44041B2
:103E00008160E06FC0F6000548B10565FCF75CFF16
:103E100028B1D4F8840040F04000C4F88400A06FBA
:103E200000283FF430AF0565FCF74EFF002808BFBF
:103E3000BDE8F087D4F8840040F04000C4F8840066
:103E4000BDE8F087B8F1030F0BD0B8F1040F0DD027
:103E5000B8F1050F7FF417AF204600F0D5F9BDE8A3
:103E6000F087204600F0C8F9BDE8F087204600F052
:103E70000BF9BDE8F087012084F8810045E70000D8
:103E80002DE9F041002800F09880044643F6000632
:103E9000C4F2000643F20007256843F60048B54225
:103EA000C4F20107C4F200084FF00000A06203D082
:103EB000454518BFBD427CD1204600F0A1FCB5426B
:103EC00018BFBD4269D1102877D894F8810028B96D
:103ED000002084F88000204600F072F8022084F868
:103EE00081002068A2690168B2F1806F21F00101B0
:103EF000016009D16168B1F5800F05D1A16B19B9D5
:103F0000016841F480510160E169A36A1943E36BE0
:103F10000B43D4E90365D4E9011733438360636B32
:103F2000666A42EA0302A36B42EA060242EA03021D
:103F3000636942EA0502266A42EA0302E36C42EA46
:103F40000602A66C42EA010242EA0302A36D42EABB
:103F5000070242EA060242EA0302C26049B98268E5
:103F6000012363F3CC2282608268022363F34A2236
:103F70008260026D490222F00101016505D5C16828
:103F8000626D21F000411143C1600020C4F884003B
:103F9000012184F88110BDE8F081454518BF08284B
:103FA0000BD8B54218BFBD428DD045453FF48BAF0D
:103FB0008BE7E0680F287FF67FAF0120BDE8F08136
:103FC00070B586B0002643F60001CDE904660446CC
:103FD0000068C4F20001039688420296019601D05F
:103FE00006B070BD44F2E040C5F60200816841F4BD
:103FF00080418160816801F48041009100990168ED
:1040000041F002010160006801A900F00200009087
:1040100000984FF4144001900220CDE902060320DD
:1040200004900520059040F20040C5F60200FEF71E
:10403000B3FA40F2E8051020C2F20045C4F20200D3
:104040002860282068604020C5E902064FF480609F
:10405000C5E90406C5E906664FF44030C5E908061F
:104060002846FDF75DFD08B1FCF72AFE242000215B
:104070000022A567AC63FEF70BFC2420FEF704FCCE
:1040800006B070BD00000000704700000000000096
:10409000B0B5044690F88000012801D10220B0BDDF
:1040A000012084F8800094F8810001283BD1002988
:1040B0003ED01546E2B3032084F881000020C4F806
:1040C0008400E165A4F86050A4F862506066C4E919
:1040D0001C00A4F86800A4F86A00A068B0F5C02F1E
:1040E00004D12068016841F400610160E068102893
:1040F00004D3A16F8969B1F5804F19D1082807D37E
:10410000A16F8969B1F5005F18BFB1F5804F0FD17C
:10411000072812D8A06F8069B0F5804F19D0B0F58C
:10412000005F11D01BE0002084F880000220B0BDA9
:10413000002084F880000120B0BD0F280FD8A06FA8
:104140008069B0F5804F0AD1B4F8620001304008B0
:1041500003E0B4F8620003308008A4F86200A06FA6
:1041600044F2D17144F2C172C0F60001C0F60002FF
:10417000C0E90F1244F291712268C0F60001C164D7
:1041800000210165E16D936823F400439360B4F866
:1041900062302032FDF774FF48B1D4F8840040F05B
:1041A0001000C4F88400012084F88100B0BDA16F24
:1041B0004FF6FF72D4E9000CC9694368B1F5807FFE
:1041C00023EA020218BF2A44BCF5800F42608168CE
:1041D00041F400418160016941F448710161016865
:1041E00041F00101016003D1016841F400710160F7
:1041F000002084F88000B0BD70470000000000007F
:104200007047000000000000704700000000000040
:1042100080B500F005FB80BDFEE700000000000057
:1042200080B500F009FC80BD80B500F009FF80BDBD
:1042300080B500F0ADFE80BD80B500F051FF80BDBF
:1042400082B049F600004EF21004C1F6F070019001
:10425000CEF20004012080F31088002525606560FF
:10426000A560FFF719F94FF0FF3000BF04EB85019F
:104270000135082DC1F87001C1F87002F6D1002097
:1042800080F3108801994968019A126882F30888BE
:1042900080F31488884700BFFEE70000000000009C
:1042A00010B50420C0F602000468FEF725F9A04707
:1042B00010BD00000000000080B582B044F2D8407C
:1042C0000022C5F60200016841F0010101600068AA
:1042D000002100F00100019001980B20FEF7D8FAB0
:1042E0000B20FEF7D1FA02B080BD000000000000F4
:1042F0002DE9F04786B044F2E0400027C5F6020001
:104300000597CDE90377CDE90177016841F2000512
:1043100041F0100101600168C5F6020501F01001CD
:1043200000910099016841F080010160016801225B
:1043300001F0800100910099016841F002010160E3
:1043400000684FF4004100F00200009000982846F9
:104350004FF400494FF00108FEF7FAF9A5F5406463
:104360004FF40051002220464FF4005AFEF7F0F9B6
:1043700001AE0820CDE90107284631460397FEF734
:104380000BF928463146CDE9019803974FF0030910
:10439000CDF81090FEF700F920463146CDE901A88E
:1043A000CDE90379FEF7F8F806B0BDE8F087000024
:1043B00010B540F2601443F60000C2F20044C4F2AB
:1043C00000004FF0005120604FF4800060604FF417
:1043D0000030A0600720E0600020C4E90400C4E9C8
:1043E0000611C4E90800C4E90A004FF08040606388
:1043F00004F138002421FBF7C3FF2046FFF740FDFE
:10440000002808BF10BDFCF75BFC10BD00000000D9
:10441000FEE7000000000000704700000000000000
:1044200000F007004FF0FF3C80F00703042B28BF8B
:104430000423033838BF00200CFA03F399430CFA25
:1044400000F301FA00F022EA03010843704700007C
:1044500080B54FF6944000F013FF80BD00000000CF
:104460007047000000000000F0B581B044F22C4716
:10447000C5F6020757F8042C02F00302032A02D102
:10448000012001B0F0BD054657F82C0C0C4620F079
:10449000806047F82C0CFEF76BF9064657F82C0C99
:1044A000000105D5FEF764F9801B0228F6D964E007
:1044B00057F8040CEE6895E80E0020F47C3040EAD2
:1044C0000130A2F101014FF47E4247F8040C02EBE7
:1044D00043224FF0FE436FF35F2192B202EB0100E3
:1044E0004FF4FE012A6901EB064101F4FE0103EBE2
:1044F0000262084402F0FE410844F86038686969C5
:1045000020F0C00040EA010038603868A96920F056
:10451000200040EA0100386038684FF6F87120F05A
:10452000100038603869EA6920EA010040EAC200F8
:104530003861386840F0100038602CB1012C3868C0
:1045400006D140F4801005E0386840F4002001E016
:1045500040F40010386057F82C0C40F0806047F8A9
:104560002C0CFEF705F9044657F82C0C000107D473
:10457000FEF7FEF8001B0328F6D3032001B0F0BDC0
:10458000002001B0F0BD0000F0B581B044F22C472E
:10459000C5F6020757F8042C02F00302032A02D1E1
:1045A000012001B0F0BD054657F82C0C0C4620F058
:1045B000805047F82C0CFEF7DBF8064657F82C0C19
:1045C000800005D5FEF7D4F8801B0228F6D964E0F8
:1045D00057F8040CEE6895E80E0020F07C7040EA75
:1045E0000150A2F101014FF47E4247F8040C02EBA6
:1045F00043224FF0FE436FF35F2192B202EB0100C2
:104600004FF4FE012A6901EB064101F4FE0103EBC0
:104610000262084402F0FE41084478613868696922
:1046200020F4406040EA010038603868A96920F44D
:10463000007040EA0100386038684FF6F87120F4E5
:1046400080703860B869EA6920EA010040EAC20077
:10465000B861386840F4807038602CB1012C38683B
:1046600006D140F4000005E0386840F4800001E025
:1046700040F08070386057F82C0C40F0805047F8BC
:104680002C0CFEF775F8044657F82C0C800007D464
:10469000FEF76EF8001B0328F6D3032001B0F0BD2F
:1046A000002001B0F0BD000080B540F26010C2F201
:1046B0000040FFF7BDFA80BD016840F26F32D1F8CB
:1046C00014C08B6943F008038B618B6943F01003BE
:1046D0008B610B6823F001030B600B6923EA020274
:1046E0000A618A6822F440428A6090F881305FEA69
:1046F0008C620BD5042B09D0D0F8842042F08002C4
:10470000C0F884208A6942F020028A6190F88130E2
:104710005FEA4C620BD5032B09D0D0F8842042F01D
:104720000402C0F884208A6942F040028A615FEA8C
:104730008C5209D5D0F8842042F00102C0F88420C0
:104740008A6942F400728A615FEACC5209D5D0F8D6
:10475000842042F00802C0F884208A6942F4807202
:104760008A610021A0F86210A0F86A10704700006A
:1047700080B5806B0021A0F86A10A0F862100121BA
:1047800080F88110FFF750FA80BD000000000000A3
:1047900010B5846BFCF7F0FB022808BF10BD204663
:1047A000FFF78AFFD4F8840040F01000C4F88400BA
:1047B000012084F881002046FFF736FA10BD000082
:1047C00080B5806BFFF71CFD80BD0000000000007D
:1047D00080B5806B90F88110072908BF80BD816F7C
:1047E000C969B1F5807F02D1FFF706FD80BD006881
:1047F000016941F00801016180BD00000000000076
:10480000C16B0122C068083002EB5111C008484357
:10481000704700000000000070470000000000002A
:10482000B0B501380024B4EB106F01D00120B0BD49
:104830004EF210050F21CEF2000568604FF0FF30F8
:1048400000F04AFDAC60072028602046B0BD0000A3
:1048500080B5FDF795FF80BDB0B5CCB044F6180427
:1048600039A84C21C5F60204FBF78AFD02A8BC2139
:104870000025CDE93755CDE93555CDE93355CDE99D
:104880003155FBF77DFD0220FEF716F801952068F3
:1048900040F440402060206800F44040019040F225
:1048A0002C40C5F60000016841F00101016000687C
:1048B00000F001000190019820688004FCD50220DE
:1048C000399001213C9140253D954290002443942C
:1048D000042144913C21CDE94510CDE947000C204D
:1048E000CDE9490439A84B94FEF73AFF3F203190B7
:1048F00003200421CDE932040820CDE934053695A2
:104900004FF48060CDE9370531A8FEF79DFC4FF4E8
:104910008050029002A81994FDF7F2FF4CB0B0BD90
:1049200080B54EF6885C42F2000ECEF2000CC5F265
:10493000002EDCF8001041F47001CCF80010DEF815
:10494000001001F00F01062906D8DEF8001007223A
:1049500062F30301CEF8001044F200414EF67F539B
:10496000C5F60201CEF6F6230A6842F001020A609B
:1049700000220A61086818400860DEF8000000079D
:1049800006D5DEF80000072363F30300CEF800002D
:1049900040F200208A61CA61C0F202200A62886285
:1049A0000020C0F2FF10C86240F28020C0F2011067
:1049B00008634A638863CA6308644A64086820F429
:1049C0008020086041F200000A66C5F600400068D9
:1049D000B2EB507F05D148F208100121C5F200105A
:1049E000016044F2000043F2D201C5F200200160F0
:1049F0004FF000604CF8800C80BD0000000000000B
:104A0000FEE700000000000010B540F200444FF443
:104A10000051C5F6020400222046FDF799FEC82089
:104A2000FDF7A6FD4FF4005101222046FDF790FE50
:104A300010BD00000000000010B50446816000F0C9
:104A40005BF92046FFF7E0FF0121204600F0FCF96A
:104A50004FF47A70FDF78CFDCB21204600F0F4F97D
:104A60003921204600F080FA2C21204600F07CFA03
:104A70000021204600F078FA3421204600F074FA34
:104A80000221204600F070FACF21204600F0DCF928
:104A90000021204600F068FAC121204600F064FAA7
:104AA0003021204600F060FAE821204600F0CCF9E1
:104AB0008521204600F058FA0021204600F054FAE3
:104AC0007821204600F050FAEA21204600F0BCF997
:104AD0000021204600F048FA0021204600F044FA68
:104AE000ED21204600F0B0F96421204600F03CFAA8
:104AF0000321204600F038FA1221204600F034FA53
:104B00008121204600F030FAF721204600F09CF980
:104B10002021204600F028FAC021204600F094F918
:104B20002321204600F020FAC121204600F08CF914
:104B30001021204600F018FAC521204600F084F923
:104B40003E21204600F010FA2821204600F00CFA01
:104B5000C721204600F078F98621204600F004FAAB
:104B60003621204600F070F94821204600F0FCF97B
:104B70003A21204600F068F95521204600F0F4F96A
:104B8000B121204600F060F90021204600F0ECF948
:104B90001821204600F0E8F9B621204600F054F92B
:104BA0000821204600F0E0F98221204600F0DCF9DF
:104BB0002721204600F0D8F9F221204600F044F9E0
:104BC0000021204600F0D0F92621204600F03CF9D3
:104BD0000121204600F0C8F9E021204600F034F918
:104BE0000F21204600F0C0F93121204600F0BCF929
:104BF0002B21204600F0B8F90C21204600F0B4F932
:104C00000E21204600F0B0F90821204600F0ACF952
:104C10004E21204600F0A8F9F121204600F0A4F929
:104C20003721204600F0A0F90721204600F09CF92A
:104C30001021204600F098F90321204600F094F955
:104C40000E21204600F090F90921204600F08CF951
:104C50000021204600F088F9E121204600F0F4F818
:104C60000021204600F080F90E21204600F07CF95A
:104C70001421204600F078F90321204600F074F951
:104C80001121204600F070F90721204600F06CF950
:104C90003121204600F068F9C121204600F064F976
:104CA0004821204600F060F90821204600F05CF918
:104CB0000F21204600F058F90C21204600F054F94D
:104CC0003121204600F050F93621204600F04CF901
:104CD0000F21204600F048F91121204600F0B4F8D9
:104CE0007820FDF745FC2921204600F0ADF8002191
:104CF000204600F0F5F910BD80B540F200404FF4B9
:104D00000051C5F602000122FDF722FD80BD000022
:104D10002DE9F04F87B0B1F12005064638BF0D46AA
:104D2000114645F2C832E8B2C0F6000240001C4607
:104D300050FA85F0119F129D019502EB400352F845
:104D40001000059007EB47009A884000ADF8182046
:104D5000FA0092B2009283B230462246039100F0EC
:104D6000EBF9002104E000BF0499013106292FD09E
:104D700005A84FF000094FF0000B0491455C039823
:104D800001FB070A01EB000812E000BF04EB090079
:104D90003B4682B210981FFA8AF101903046009784
:104DA00000F0CAF90BF1010BB944BBF1080FDBD0DD
:104DB00025FA0BF0C007F5D0012FE7D104EB0B006B
:104DC000109B82B230461FFA88F100F051F8E9E7F3
:104DD00007B0BDE8F08F00002DE9F04F83B00F78E9
:104DE000DFB1DDE90C9A06469B460AEB4A00154600
:104DF0004400A1F1010800BFCDE9009AF9B20E9874
:104E0000EAB2029030465B46FFF782FF98F80270E4
:104E1000254408F10108002FEED103B0BDE8F08F62
:104E200080B582B080688DF8071000BF90F88110BF
:104E30000129FBD10DF107010122FFF729F902B089
:104E400080BD000000000000B0B5054641F2000042
:104E50000C46C5F602004FF400410022FDF778FC35
:104E600028462146FFF7DCFFB0BD0000000000002F
:104E70002DE9F04184B00446406888426FDD206827
:104E8000174690426BDD41F200080E46C5F6020857
:104E90004FF40041002240461D46FDF759FC2A21EF
:104EA0002046FFF7BDFF4FF4004101224046FDF7C9
:104EB0004FFC300A8DF80C00701C8DF80F00010AB1
:104EC000A0688DF80D608DF80E1000BF90F881106D
:104ED0000129FBD103A90422FFF7DAF84FF40041BE
:104EE00000224046FDF734FC2B212046FFF798FFB7
:104EF0004FF4004101224046FDF72AFC380A8DF8A4
:104F00000800781C8DF80B00010AA0688DF8097064
:104F10008DF80A1090F881100129FBD102A9042212
:104F2000FFF7B6F84FF4004100224046FDF710FCB1
:104F30002C212046FFF774FF4FF400410122404628
:104F4000FDF706FC68BAADF80600A06890F881107D
:104F50000129FBD10DF106010222FFF799F804B0F7
:104F6000BDE8F08100000000B0B5054641F2000048
:104F70000C46C5F602004FF400410122FDF7E8FBA4
:104F800028462146FFF74CFFB0BD0000000000009E
:104F90002DE9F04784B040F2A4060D46C2F2004667
:104FA00004464FF6FF7832680F2A18DA1001002104
:104FB0000091022101910022C3B220462946CDF87A
:104FC0000880FFF709FF306840F2A801C2F20041F3
:104FD00041F820500130306004B0BDE8F08740F265
:104FE000A8006FF00301C2F2004000BF4218043174
:104FF000342993685360F9D1071F10264FF0000938
:105000004FF0020A856300BFA6F110050021F023CE
:1050100020462A46009600F0BBF857F8041F0022ED
:10502000EBB22046CDE9009ACDF80880FFF7D4FE18
:105030001036B6F5807FE7D104B0BDE8F0870000F8
:10504000B0B582B00446838800880D460021002256
:105050000090204600F00CF8D4E9000100FB01F2BA
:105060002046294600F0B4F802B0B0BD00000000B0
:105070002DE9F0410F462A211E4615460446DDF86B
:105080001880FFF7E1FE390A2046FFF76DFFF9B2FD
:105090002046FFF769FF310A2046FFF765FFF1B2AE
:1050A0002046FFF761FF2B212046FFF7CDFE290A9E
:1050B0002046FFF759FFE9B22046FFF755FF4FEAB8
:1050C00018212046FFF750FF5FFA88F12046FFF7CE
:1050D0004BFF2C212046FFF7B7FEBDE8F081000012
:1050E000F0B581B00D4636210446FFF7ADFE012034
:1050F000FDF73EFA032D1AD84FF4A076F027482189
:10510000DFE805F01002070CF0264FF4A077282105
:1051100008E04FF4A076F027882103E0F0264FF452
:10512000A077E8212046FFF71FFFC4E9006701B020
:10513000F0BD0000000000002DE9F04182B00446FF
:105140004068884220DD256895421DDD089E5F1875
:10515000874206EB0207C8BF431AAF42DDF824803E
:10516000C8BFAE1A9DB2C81893190138013B9FB24F
:10517000009783B22046B6B2FFF77AFF06FB05F22E
:105180002046414600F024F802B0BDE8F08100005E
:105190002DE9F04182B00746DDF820801C46154617
:1051A0000E4689B292B29BB21FFA88F00090384640
:1051B000FFF75EFFA01BA8EB050101FB00F24FF615
:1051C000FF71384600F004F802B0BDE8F08100003D
:1051D0002DE9F04F03AF81B0804641F200009246C6
:1051E0004FEA42090D46C5F602004FF40041012284
:1051F000B9F5FA7F28BF4FF4FA7AFDF7A9FA0AF158
:10520000070020F00700ADEB0006B546BAF1000F2D
:1052100008D0280A002100BF72187054023151458D
:105220005570F9D3B9FBFAFBCA4510D800241FFA10
:105230008AF500BFD8F8080090F881100129FBD149
:1052400031462A46FEF724FF01345C45F2D30BFBBE
:105250001A91D8F8080000BF90F88120012AFBD1EC
:105260008AB23146FEF714FFA7F10C04A546BDE84B
:10527000F08F40F2E400C2F2004000687047000086
:1052800010B50446002808BF012400BF2046FBF7E4
:10529000A1F8002818BF10BDFFF7EBFF08B1804749
:1052A000F4E7002010BD0000002848BF70474EF210
:1052B000001300F01F014009CEF20003012202FAA0
:1052C00001F143F8201070474EF60C50CEF200006A
:1052D0000068C0F3022070474EF6145300F00F022E
:1052E000CEF20003B0F1FF3F1A4400F16043C8BFA3
:1052F00003F56442080110707047000000000000D0
:105300004EF60C514FF6FF03CEF200010A681A4028
:1053100060F30A2242F0806040F0FD700860704740
:10532000FDF73EFAFFF798FAFEF7E2FFFEF7C4FF3B
:10533000FFF73EF8FFF78CF840F2A00440F260114E
:10534000C2F20044C2F200412060FEF769FF20680B
:105350000321FEF771FF20684FF6FF71FEF764FF2F
:1053600040F200012068C2F20041FEF761FF41F205
:1053700000000821C5F60200FDF7E2F968B140F22D
:1053800017012068C2F20041FEF752FF40F6B83024
:10539000FDF7EEF8FEF784FFFEE7FEF751FFF1EEB2
:1053A000100A4FF6FF71C0F2C03120EA010040F050
:1053B0004070E1EE100A7047000000000102030493
:1053C00001020304060708090000000000005C0059
:1053D00000000000060006000000287C287C280051
:1053E0005C54FE5474004420100844002854542097
:1053F000500006000000000038440000000044385F
:105400000000000002070200000010107C101000D5
:10541000C00000000000101010101000400000003C
:10542000000060100C0000007C64544C7C00487C40
:1054300040000000645454544800445454546C00D8
:105440003C20702020005C54545424007C5454545C
:105450007400040464140C007C5454547C005C54A8
:1054600054547C00440000000000C4000000000010
:10547000102844000000282828282800442810006C
:1054800000000804540800007C4454545C007C2450
:1054900024247C007C5454546C007C4444444400D8
:1054A0007C44444438007C54545444007C14141408
:1054B00004007C44445474007C1010107C0044446C
:1054C0007C444400604040447C007C101028440030
:1054D0007C40404040007C0810087C007C08102084
:1054E0007C003844444438007C14141408003C24E4
:1054F00064243C007C14141468005C5454547400FC
:1055000004047C0404007C4040407C000C304030AB
:105510000C003C4030403C004428102844000C1053
:1055200060100C004464544C44007C4400000000B3
:105530000C1060000000447C00000000000100012D
:1055400000004040404040400001000000007C243A
:1055500024247C007C5454546C007C444444440017
:105560007C44444438007C54545444007C14141447
:1055700004007C44445474007C1010107C004444AB
:105580007C444400604040447C007C10102844006F
:105590007C40404040007C0810087C007C081020C3
:1055A0007C003844444438007C14141408003C2423
:1055B00064243C007C14141468005C54545474003B
:1055C00004047C0404007C4040407C000C304030EB
:1055D0000C003C4030403C004428102844000C1093
:1055E00060100C004464544C4400107C44000000E3
:1055F0006C0000000000447C100000000201020169
:1056000000000000000000002856000800000024F0
:1056100040000000D4020008685600084000002442
:10562000B0070000F002000857656C636F6D6520DD
:10563000746F20483720626F6F746C6F616400472D
:105640006F20757365722061707020696E203373EE
:10565000000000000090D0030090D0030100000083
:08566000100000000000000032
:040000050800029954
:00000001FF
